{
  "_format": "hh-sol-artifact-1",
  "contractName": "LiskNameService",
  "sourceName": "contracts/LiskNameService.sol",
  "abi": [
    {
      "inputs": [],
      "stateMutability": "nonpayable",
      "type": "constructor"
    },
    {
      "inputs": [
        {
          "internalType": "address",
          "name": "target",
          "type": "address"
        }
      ],
      "name": "AddressEmptyCode",
      "type": "error"
    },
    {
      "inputs": [
        {
          "internalType": "address",
          "name": "implementation",
          "type": "address"
        }
      ],
      "name": "ERC1967InvalidImplementation",
      "type": "error"
    },
    {
      "inputs": [],
      "name": "ERC1967NonPayable",
      "type": "error"
    },
    {
      "inputs": [],
      "name": "FailedCall",
      "type": "error"
    },
    {
      "inputs": [],
      "name": "InvalidInitialization",
      "type": "error"
    },
    {
      "inputs": [],
      "name": "NotInitializing",
      "type": "error"
    },
    {
      "inputs": [
        {
          "internalType": "address",
          "name": "owner",
          "type": "address"
        }
      ],
      "name": "OwnableInvalidOwner",
      "type": "error"
    },
    {
      "inputs": [
        {
          "internalType": "address",
          "name": "account",
          "type": "address"
        }
      ],
      "name": "OwnableUnauthorizedAccount",
      "type": "error"
    },
    {
      "inputs": [],
      "name": "ReentrancyGuardReentrantCall",
      "type": "error"
    },
    {
      "inputs": [],
      "name": "UUPSUnauthorizedCallContext",
      "type": "error"
    },
    {
      "inputs": [
        {
          "internalType": "bytes32",
          "name": "slot",
          "type": "bytes32"
        }
      ],
      "name": "UUPSUnsupportedProxiableUUID",
      "type": "error"
    },
    {
      "anonymous": false,
      "inputs": [
        {
          "indexed": true,
          "internalType": "address",
          "name": "sender",
          "type": "address"
        },
        {
          "indexed": false,
          "internalType": "uint256",
          "name": "amount",
          "type": "uint256"
        }
      ],
      "name": "FundsReceived",
      "type": "event"
    },
    {
      "anonymous": false,
      "inputs": [
        {
          "indexed": true,
          "internalType": "address",
          "name": "sender",
          "type": "address"
        },
        {
          "indexed": false,
          "internalType": "uint256",
          "name": "amount",
          "type": "uint256"
        }
      ],
      "name": "FundsReturned",
      "type": "event"
    },
    {
      "anonymous": false,
      "inputs": [
        {
          "indexed": false,
          "internalType": "uint64",
          "name": "version",
          "type": "uint64"
        }
      ],
      "name": "Initialized",
      "type": "event"
    },
    {
      "anonymous": false,
      "inputs": [
        {
          "indexed": true,
          "internalType": "string",
          "name": "name",
          "type": "string"
        },
        {
          "indexed": true,
          "internalType": "address",
          "name": "owner",
          "type": "address"
        }
      ],
      "name": "NameRegistered",
      "type": "event"
    },
    {
      "anonymous": false,
      "inputs": [
        {
          "indexed": true,
          "internalType": "string",
          "name": "name",
          "type": "string"
        },
        {
          "indexed": true,
          "internalType": "address",
          "name": "owner",
          "type": "address"
        }
      ],
      "name": "NameReleased",
      "type": "event"
    },
    {
      "anonymous": false,
      "inputs": [
        {
          "indexed": true,
          "internalType": "string",
          "name": "name",
          "type": "string"
        },
        {
          "indexed": false,
          "internalType": "uint256",
          "name": "newExpiry",
          "type": "uint256"
        }
      ],
      "name": "NameRenewed",
      "type": "event"
    },
    {
      "anonymous": false,
      "inputs": [
        {
          "indexed": true,
          "internalType": "address",
          "name": "previousOwner",
          "type": "address"
        },
        {
          "indexed": true,
          "internalType": "address",
          "name": "newOwner",
          "type": "address"
        }
      ],
      "name": "OwnershipTransferred",
      "type": "event"
    },
    {
      "anonymous": false,
      "inputs": [
        {
          "indexed": true,
          "internalType": "string",
          "name": "name",
          "type": "string"
        },
        {
          "indexed": true,
          "internalType": "address",
          "name": "newOwner",
          "type": "address"
        }
      ],
      "name": "OwnershipTransferred",
      "type": "event"
    },
    {
      "anonymous": false,
      "inputs": [
        {
          "indexed": true,
          "internalType": "address",
          "name": "implementation",
          "type": "address"
        }
      ],
      "name": "Upgraded",
      "type": "event"
    },
    {
      "inputs": [],
      "name": "BASE_PRICE",
      "outputs": [
        {
          "internalType": "uint256",
          "name": "",
          "type": "uint256"
        }
      ],
      "stateMutability": "view",
      "type": "function"
    },
    {
      "inputs": [],
      "name": "MAX_FEE",
      "outputs": [
        {
          "internalType": "uint256",
          "name": "",
          "type": "uint256"
        }
      ],
      "stateMutability": "view",
      "type": "function"
    },
    {
      "inputs": [],
      "name": "MIN_FEE",
      "outputs": [
        {
          "internalType": "uint256",
          "name": "",
          "type": "uint256"
        }
      ],
      "stateMutability": "view",
      "type": "function"
    },
    {
      "inputs": [],
      "name": "MIN_NAME_LENGTH",
      "outputs": [
        {
          "internalType": "uint256",
          "name": "",
          "type": "uint256"
        }
      ],
      "stateMutability": "view",
      "type": "function"
    },
    {
      "inputs": [],
      "name": "NAME_MAX_LENGTH",
      "outputs": [
        {
          "internalType": "uint256",
          "name": "",
          "type": "uint256"
        }
      ],
      "stateMutability": "view",
      "type": "function"
    },
    {
      "inputs": [],
      "name": "PRICE_REDUCTION_PER_LETTER",
      "outputs": [
        {
          "internalType": "uint256",
          "name": "",
          "type": "uint256"
        }
      ],
      "stateMutability": "view",
      "type": "function"
    },
    {
      "inputs": [],
      "name": "RENEWAL_PERIOD",
      "outputs": [
        {
          "internalType": "uint256",
          "name": "",
          "type": "uint256"
        }
      ],
      "stateMutability": "view",
      "type": "function"
    },
    {
      "inputs": [],
      "name": "UPGRADE_INTERFACE_VERSION",
      "outputs": [
        {
          "internalType": "string",
          "name": "",
          "type": "string"
        }
      ],
      "stateMutability": "view",
      "type": "function"
    },
    {
      "inputs": [
        {
          "internalType": "string",
          "name": "_name",
          "type": "string"
        }
      ],
      "name": "calculatePrice",
      "outputs": [
        {
          "internalType": "uint256",
          "name": "",
          "type": "uint256"
        }
      ],
      "stateMutability": "pure",
      "type": "function"
    },
    {
      "inputs": [],
      "name": "claimRefund",
      "outputs": [],
      "stateMutability": "nonpayable",
      "type": "function"
    },
    {
      "inputs": [],
      "name": "feeRecipient",
      "outputs": [
        {
          "internalType": "address",
          "name": "",
          "type": "address"
        }
      ],
      "stateMutability": "view",
      "type": "function"
    },
    {
      "inputs": [],
      "name": "getDebts",
      "outputs": [
        {
          "internalType": "uint256",
          "name": "",
          "type": "uint256"
        }
      ],
      "stateMutability": "view",
      "type": "function"
    },
    {
      "inputs": [],
      "name": "initialize",
      "outputs": [],
      "stateMutability": "nonpayable",
      "type": "function"
    },
    {
      "inputs": [
        {
          "internalType": "string",
          "name": "_name",
          "type": "string"
        }
      ],
      "name": "isAvailable",
      "outputs": [
        {
          "internalType": "bool",
          "name": "",
          "type": "bool"
        }
      ],
      "stateMutability": "view",
      "type": "function"
    },
    {
      "inputs": [
        {
          "internalType": "string",
          "name": "",
          "type": "string"
        }
      ],
      "name": "names",
      "outputs": [
        {
          "internalType": "address",
          "name": "owner",
          "type": "address"
        },
        {
          "internalType": "uint256",
          "name": "expires",
          "type": "uint256"
        }
      ],
      "stateMutability": "view",
      "type": "function"
    },
    {
      "inputs": [],
      "name": "owner",
      "outputs": [
        {
          "internalType": "address",
          "name": "",
          "type": "address"
        }
      ],
      "stateMutability": "view",
      "type": "function"
    },
    {
      "inputs": [
        {
          "internalType": "address",
          "name": "",
          "type": "address"
        }
      ],
      "name": "pendingRefunds",
      "outputs": [
        {
          "internalType": "uint256",
          "name": "",
          "type": "uint256"
        }
      ],
      "stateMutability": "view",
      "type": "function"
    },
    {
      "inputs": [],
      "name": "proxiableUUID",
      "outputs": [
        {
          "internalType": "bytes32",
          "name": "",
          "type": "bytes32"
        }
      ],
      "stateMutability": "view",
      "type": "function"
    },
    {
      "inputs": [
        {
          "internalType": "string",
          "name": "_name",
          "type": "string"
        }
      ],
      "name": "register",
      "outputs": [],
      "stateMutability": "payable",
      "type": "function"
    },
    {
      "inputs": [
        {
          "internalType": "string",
          "name": "_name",
          "type": "string"
        }
      ],
      "name": "release",
      "outputs": [],
      "stateMutability": "nonpayable",
      "type": "function"
    },
    {
      "inputs": [
        {
          "internalType": "string",
          "name": "_name",
          "type": "string"
        }
      ],
      "name": "renew",
      "outputs": [],
      "stateMutability": "payable",
      "type": "function"
    },
    {
      "inputs": [],
      "name": "renounceOwnership",
      "outputs": [],
      "stateMutability": "nonpayable",
      "type": "function"
    },
    {
      "inputs": [
        {
          "internalType": "string",
          "name": "_name",
          "type": "string"
        }
      ],
      "name": "resolve",
      "outputs": [
        {
          "internalType": "address",
          "name": "",
          "type": "address"
        }
      ],
      "stateMutability": "view",
      "type": "function"
    },
    {
      "inputs": [
        {
          "internalType": "address",
          "name": "_recipient",
          "type": "address"
        }
      ],
      "name": "setFeeRecipient",
      "outputs": [],
      "stateMutability": "nonpayable",
      "type": "function"
    },
    {
      "inputs": [
        {
          "internalType": "string",
          "name": "_name",
          "type": "string"
        },
        {
          "internalType": "address",
          "name": "_newOwner",
          "type": "address"
        }
      ],
      "name": "transfer",
      "outputs": [],
      "stateMutability": "nonpayable",
      "type": "function"
    },
    {
      "inputs": [
        {
          "internalType": "address",
          "name": "newOwner",
          "type": "address"
        }
      ],
      "name": "transferOwnership",
      "outputs": [],
      "stateMutability": "nonpayable",
      "type": "function"
    },
    {
      "inputs": [
        {
          "internalType": "address",
          "name": "newImplementation",
          "type": "address"
        },
        {
          "internalType": "bytes",
          "name": "data",
          "type": "bytes"
        }
      ],
      "name": "upgradeToAndCall",
      "outputs": [],
      "stateMutability": "payable",
      "type": "function"
    },
    {
      "inputs": [],
      "name": "withdraw",
      "outputs": [],
      "stateMutability": "nonpayable",
      "type": "function"
    },
    {
      "stateMutability": "payable",
      "type": "receive"
    }
  ],
  "bytecode": "0x60a06040523073ffffffffffffffffffffffffffffffffffffffff1660809073ffffffffffffffffffffffffffffffffffffffff168152503480156200004457600080fd5b50620000556200005b60201b60201c565b620001ee565b60006200006d6200016560201b60201c565b90508060000160089054906101000a900460ff1615620000b9576040517ff92ee8a900000000000000000000000000000000000000000000000000000000815260040160405180910390fd5b67ffffffffffffffff80168160000160009054906101000a900467ffffffffffffffff1667ffffffffffffffff1614620001625767ffffffffffffffff8160000160006101000a81548167ffffffffffffffff021916908367ffffffffffffffff1602179055507fc7f505b2f371ae2175ee4913f4499e1f2633a7b5936321eed1cdaeb6115181d267ffffffffffffffff604051620001599190620001d1565b60405180910390a15b50565b600080620001786200018160201b60201c565b90508091505090565b60007ff0c57e16840df040f15088dc2f81fe391c3923bec73e23a9662efc9c229c6a0060001b905090565b600067ffffffffffffffff82169050919050565b620001cb81620001ac565b82525050565b6000602082019050620001e86000830184620001c0565b92915050565b60805161350e6200021860003960008181611ece01528181611f2301526120de015261350e6000f3fe6080604052600436106101bb5760003560e01c8063965306aa116100ec578063e23ca01c1161008a578063f2fde38b11610064578063f2fde38b146106b6578063f34e3723146106df578063f86325ed14610708578063fbf58b3e14610733576102cd565b8063e23ca01c14610646578063e74b981b14610671578063f2c298be1461069a576102cd565b8063b5545a3c116100c6578063b5545a3c1461059c578063b613b114146105b3578063bc063e1a146105f0578063c836ef2e1461061b576102cd565b8063965306aa14610518578063a4a9a61214610555578063ad3cb1cc14610571576102cd565b8063696e430f1161015957806376c7a3c71161013357806376c7a3c71461046d5780638129fc1c14610498578063822fbf58146104af5780638da5cb5b146104ed576102cd565b8063696e430f146103ee5780636c71716e14610419578063715018a614610456576102cd565b8063469048401161019557806346904840146103515780634f1ef2861461037c57806350cfeddd1461039857806352d1902d146103c3576102cd565b8063253f4050146102d25780633ccfd60b146102fd578063461a447814610314576102cd565b366102cd576101c861075c565b60003373ffffffffffffffffffffffffffffffffffffffff16346040516101ee90612747565b60006040518083038185875af1925050503d806000811461022b576040519150601f19603f3d011682016040523d82523d6000602084013e610230565b606091505b5050905080610274576040517f08c379a000000000000000000000000000000000000000000000000000000000815260040161026b906127b9565b60405180910390fd5b3373ffffffffffffffffffffffffffffffffffffffff167fd7289cb4bb1d80932416fb1a5e3130055c190f63290d5762ff0389a3163b6e8a346040516102ba91906127f2565b60405180910390a2506102cb6107b3565b005b600080fd5b3480156102de57600080fd5b506102e76107cc565b6040516102f491906127f2565b60405180910390f35b34801561030957600080fd5b506103126107d1565b005b34801561032057600080fd5b5061033b60048036038101906103369190612967565b61090f565b60405161034891906129f1565b60405180910390f35b34801561035d57600080fd5b50610366610a37565b60405161037391906129f1565b60405180910390f35b61039660048036038101906103919190612ad9565b610a5d565b005b3480156103a457600080fd5b506103ad610a7c565b6040516103ba91906127f2565b60405180910390f35b3480156103cf57600080fd5b506103d8610a81565b6040516103e59190612b4e565b60405180910390f35b3480156103fa57600080fd5b50610403610ab4565b60405161041091906127f2565b60405180910390f35b34801561042557600080fd5b50610440600480360381019061043b9190612967565b610ac0565b60405161044d91906127f2565b60405180910390f35b34801561046257600080fd5b5061046b610b72565b005b34801561047957600080fd5b50610482610b86565b60405161048f91906127f2565b60405180910390f35b3480156104a457600080fd5b506104ad610b92565b005b3480156104bb57600080fd5b506104d660048036038101906104d19190612967565b610d71565b6040516104e4929190612b69565b60405180910390f35b3480156104f957600080fd5b50610502610dcb565b60405161050f91906129f1565b60405180910390f35b34801561052457600080fd5b5061053f600480360381019061053a9190612967565b610e03565b60405161054c9190612bad565b60405180910390f35b61056f600480360381019061056a9190612967565b610ea7565b005b34801561057d57600080fd5b506105866111ba565b6040516105939190612c36565b60405180910390f35b3480156105a857600080fd5b506105b16111f3565b005b3480156105bf57600080fd5b506105da60048036038101906105d59190612c58565b6113e5565b6040516105e791906127f2565b60405180910390f35b3480156105fc57600080fd5b506106056113fd565b60405161061291906127f2565b60405180910390f35b34801561062757600080fd5b5061063061140a565b60405161063d91906127f2565b60405180910390f35b34801561065257600080fd5b5061065b61141c565b60405161066891906127f2565b60405180910390f35b34801561067d57600080fd5b5061069860048036038101906106939190612c58565b611424565b005b6106b460048036038101906106af9190612967565b6114df565b005b3480156106c257600080fd5b506106dd60048036038101906106d89190612c58565b611988565b005b3480156106eb57600080fd5b5061070660048036038101906107019190612967565b611a0e565b005b34801561071457600080fd5b5061071d611bcf565b60405161072a91906127f2565b60405180910390f35b34801561073f57600080fd5b5061075a60048036038101906107559190612c85565b611bdc565b005b6000610766611e1d565b905060028160000154036107a6576040517f3ee5aeb500000000000000000000000000000000000000000000000000000000815260040160405180910390fd5b6002816000018190555050565b60006107bd611e1d565b90506001816000018190555050565b601281565b6107d9611e45565b6107e161075c565b60008054476107f09190612d10565b905060008111610835576040517f08c379a000000000000000000000000000000000000000000000000000000000815260040161082c90612d90565b60405180910390fd5b6000600360009054906101000a900473ffffffffffffffffffffffffffffffffffffffff1673ffffffffffffffffffffffffffffffffffffffff168260405161087d90612747565b60006040518083038185875af1925050503d80600081146108ba576040519150601f19603f3d011682016040523d82523d6000602084013e6108bf565b606091505b5050905080610903576040517f08c379a00000000000000000000000000000000000000000000000000000000081526004016108fa90612dfc565b60405180910390fd5b505061090d6107b3565b565b60008073ffffffffffffffffffffffffffffffffffffffff166001836040516109389190612e58565b908152602001604051809103902060000160009054906101000a900473ffffffffffffffffffffffffffffffffffffffff1673ffffffffffffffffffffffffffffffffffffffff16141580156109af57506001826040516109999190612e58565b9081526020016040518091039020600101544211155b6109ee576040517f08c379a00000000000000000000000000000000000000000000000000000000081526004016109e590612ebb565b60405180910390fd5b6001826040516109fe9190612e58565b908152602001604051809103902060000160009054906101000a900473ffffffffffffffffffffffffffffffffffffffff169050919050565b600360009054906101000a900473ffffffffffffffffffffffffffffffffffffffff1681565b610a65611ecc565b610a6e82611fb2565b610a788282611fbd565b5050565b600381565b6000610a8b6120dc565b7f360894a13ba1a3210667c828492db98dca3e2076cc3735a920a3ca505d382bbc60001b905090565b6714d1120d7b16000081565b600080825190506003811015610ae1576729a2241af62c0000915050610b6d565b6000600382610af09190612d10565b6714d1120d7b160000610b039190612edb565b90506000816801a055690d9db80000610b1c9190612d10565b90506729a2241af62c0000811015610b41576729a2241af62c00009350505050610b6d565b6801a055690d9db80000811115610b66576801a055690d9db800009350505050610b6d565b8093505050505b919050565b610b7a611e45565b610b846000612163565b565b6729a2241af62c000081565b6000610b9c61223a565b905060008160000160089054906101000a900460ff1615905060008260000160009054906101000a900467ffffffffffffffff1690506000808267ffffffffffffffff16148015610bea5750825b9050600060018367ffffffffffffffff16148015610c1f575060003073ffffffffffffffffffffffffffffffffffffffff163b145b905081158015610c2d575080155b15610c64576040517ff92ee8a900000000000000000000000000000000000000000000000000000000815260040160405180910390fd5b60018560000160006101000a81548167ffffffffffffffff021916908367ffffffffffffffff1602179055508315610cb45760018560000160086101000a81548160ff0219169083151502179055505b610cbd3361224e565b610cc5612262565b610ccd612274565b33600360006101000a81548173ffffffffffffffffffffffffffffffffffffffff021916908373ffffffffffffffffffffffffffffffffffffffff1602179055508315610d6a5760008560000160086101000a81548160ff0219169083151502179055507fc7f505b2f371ae2175ee4913f4499e1f2633a7b5936321eed1cdaeb6115181d26001604051610d619190612f76565b60405180910390a15b5050505050565b6001818051602081018201805184825260208301602085012081835280955050505050506000915090508060000160009054906101000a900473ffffffffffffffffffffffffffffffffffffffff16908060010154905082565b600080610dd661227e565b90508060000160009054906101000a900473ffffffffffffffffffffffffffffffffffffffff1691505090565b60008073ffffffffffffffffffffffffffffffffffffffff16600183604051610e2c9190612e58565b908152602001604051809103902060000160009054906101000a900473ffffffffffffffffffffffffffffffffffffffff1673ffffffffffffffffffffffffffffffffffffffff161480610ea05750600182604051610e8b9190612e58565b90815260200160405180910390206001015442115b9050919050565b610eaf61075c565b3373ffffffffffffffffffffffffffffffffffffffff16600182604051610ed69190612e58565b908152602001604051809103902060000160009054906101000a900473ffffffffffffffffffffffffffffffffffffffff1673ffffffffffffffffffffffffffffffffffffffff1614610f5e576040517f08c379a0000000000000000000000000000000000000000000000000000000008152600401610f5590612fdd565b60405180910390fd5b6000610f6982610ac0565b905080341015610fae576040517f08c379a0000000000000000000000000000000000000000000000000000000008152600401610fa590613049565b60405180910390fd5b60006301e13380600184604051610fc59190612e58565b908152602001604051809103902060010154610fe19190613069565b905080600184604051610ff49190612e58565b90815260200160405180910390206001018190555081341115611091576000823461101f9190612d10565b905080600260003373ffffffffffffffffffffffffffffffffffffffff1673ffffffffffffffffffffffffffffffffffffffff16815260200190815260200160002060008282546110709190613069565b92505081905550806000808282546110889190613069565b92505081905550505b6000600360009054906101000a900473ffffffffffffffffffffffffffffffffffffffff1673ffffffffffffffffffffffffffffffffffffffff16836040516110d990612747565b60006040518083038185875af1925050503d8060008114611116576040519150601f19603f3d011682016040523d82523d6000602084013e61111b565b606091505b505090508061115f576040517f08c379a0000000000000000000000000000000000000000000000000000000008152600401611156906130e9565b60405180910390fd5b8360405161116d9190612e58565b60405180910390207f0cf55da39288ef07a66ed9175301862aedb2e223317200ca33fa25f9e9d2c9d3836040516111a491906127f2565b60405180910390a25050506111b76107b3565b50565b6040518060400160405280600581526020017f352e302e3000000000000000000000000000000000000000000000000000000081525081565b6111fb61075c565b6000600260003373ffffffffffffffffffffffffffffffffffffffff1673ffffffffffffffffffffffffffffffffffffffff16815260200190815260200160002054905060008111611282576040517f08c379a000000000000000000000000000000000000000000000000000000000815260040161127990613155565b60405180910390fd5b60003373ffffffffffffffffffffffffffffffffffffffff16826040516112a890612747565b60006040518083038185875af1925050503d80600081146112e5576040519150601f19603f3d011682016040523d82523d6000602084013e6112ea565b606091505b505090508061132e576040517f08c379a0000000000000000000000000000000000000000000000000000000008152600401611325906127b9565b60405180910390fd5b6000600260003373ffffffffffffffffffffffffffffffffffffffff1673ffffffffffffffffffffffffffffffffffffffff16815260200190815260200160002081905550816000808282546113849190612d10565b925050819055503373ffffffffffffffffffffffffffffffffffffffff167fd7289cb4bb1d80932416fb1a5e3130055c190f63290d5762ff0389a3163b6e8a836040516113d191906127f2565b60405180910390a250506113e36107b3565b565b60026020528060005260406000206000915090505481565b6801a055690d9db8000081565b6000611414611e45565b600054905090565b6301e1338081565b61142c611e45565b600073ffffffffffffffffffffffffffffffffffffffff168173ffffffffffffffffffffffffffffffffffffffff160361149b576040517f08c379a0000000000000000000000000000000000000000000000000000000008152600401611492906131c1565b60405180910390fd5b80600360006101000a81548173ffffffffffffffffffffffffffffffffffffffff021916908373ffffffffffffffffffffffffffffffffffffffff16021790555050565b6114e761075c565b8060008151905060038110158015611500575060128111155b61153f576040517f08c379a00000000000000000000000000000000000000000000000000000000081526004016115369061322d565b60405180910390fd5b600082905060005b815181101561167e5760008282815181106115655761156461324d565b5b602001015160f81c60f81b9050603060f81b817effffffffffffffffffffffffffffffffffffffffffffffffffffffffffffff1916101580156115ce5750603960f81b817effffffffffffffffffffffffffffffffffffffffffffffffffffffffffffff191611155b806116315750606160f81b817effffffffffffffffffffffffffffffffffffffffffffffffffffffffffffff1916101580156116305750607a60f81b817effffffffffffffffffffffffffffffffffffffffffffffffffffffffffffff191611155b5b611670576040517f08c379a0000000000000000000000000000000000000000000000000000000008152600401611667906132c8565b60405180910390fd5b508080600101915050611547565b5061168884610e03565b6116c7576040517f08c379a00000000000000000000000000000000000000000000000000000000081526004016116be90613334565b60405180910390fd5b60006116d285610ac0565b905080341015611717576040517f08c379a000000000000000000000000000000000000000000000000000000000815260040161170e90613049565b60405180910390fd5b60006301e13380426117299190613069565b905060405180604001604052803373ffffffffffffffffffffffffffffffffffffffff168152602001828152506001876040516117669190612e58565b908152602001604051809103902060008201518160000160006101000a81548173ffffffffffffffffffffffffffffffffffffffff021916908373ffffffffffffffffffffffffffffffffffffffff160217905550602082015181600101559050508134111561185057600082346117de9190612d10565b905080600260003373ffffffffffffffffffffffffffffffffffffffff1673ffffffffffffffffffffffffffffffffffffffff168152602001908152602001600020600082825461182f9190613069565b92505081905550806000808282546118479190613069565b92505081905550505b6000600360009054906101000a900473ffffffffffffffffffffffffffffffffffffffff1673ffffffffffffffffffffffffffffffffffffffff168360405161189890612747565b60006040518083038185875af1925050503d80600081146118d5576040519150601f19603f3d011682016040523d82523d6000602084013e6118da565b606091505b505090508061191e576040517f08c379a0000000000000000000000000000000000000000000000000000000008152600401611915906130e9565b60405180910390fd5b3373ffffffffffffffffffffffffffffffffffffffff16876040516119439190612e58565b60405180910390207f1c6eac0e720ec22bb0653aec9c19985633a4fb07971cf973096c2f8e3c37c17f60405160405180910390a35050505050506119856107b3565b50565b611990611e45565b600073ffffffffffffffffffffffffffffffffffffffff168173ffffffffffffffffffffffffffffffffffffffff1603611a025760006040517f1e4fbdf70000000000000000000000000000000000000000000000000000000081526004016119f991906129f1565b60405180910390fd5b611a0b81612163565b50565b803373ffffffffffffffffffffffffffffffffffffffff16600182604051611a369190612e58565b908152602001604051809103902060000160009054906101000a900473ffffffffffffffffffffffffffffffffffffffff1673ffffffffffffffffffffffffffffffffffffffff1614611abe576040517f08c379a0000000000000000000000000000000000000000000000000000000008152600401611ab590612fdd565b60405180910390fd5b600182604051611ace9190612e58565b908152602001604051809103902060010154421115611b22576040517f08c379a0000000000000000000000000000000000000000000000000000000008152600401611b19906133a0565b60405180910390fd5b600182604051611b329190612e58565b9081526020016040518091039020600080820160006101000a81549073ffffffffffffffffffffffffffffffffffffffff0219169055600182016000905550503373ffffffffffffffffffffffffffffffffffffffff1682604051611b979190612e58565b60405180910390207f9ba695f456eda68948ab6ebb7d43bb0e037f3184bc4e0a38f50763792f091f6060405160405180910390a35050565b6801a055690d9db8000081565b813373ffffffffffffffffffffffffffffffffffffffff16600182604051611c049190612e58565b908152602001604051809103902060000160009054906101000a900473ffffffffffffffffffffffffffffffffffffffff1673ffffffffffffffffffffffffffffffffffffffff1614611c8c576040517f08c379a0000000000000000000000000000000000000000000000000000000008152600401611c8390612fdd565b60405180910390fd5b600183604051611c9c9190612e58565b908152602001604051809103902060010154421115611cf0576040517f08c379a0000000000000000000000000000000000000000000000000000000008152600401611ce7906133a0565b60405180910390fd5b600073ffffffffffffffffffffffffffffffffffffffff168273ffffffffffffffffffffffffffffffffffffffff1603611d5f576040517f08c379a0000000000000000000000000000000000000000000000000000000008152600401611d569061340c565b60405180910390fd5b81600184604051611d709190612e58565b908152602001604051809103902060000160006101000a81548173ffffffffffffffffffffffffffffffffffffffff021916908373ffffffffffffffffffffffffffffffffffffffff1602179055508173ffffffffffffffffffffffffffffffffffffffff1683604051611de49190612e58565b60405180910390207f6d82ace1ded9997251e5a150555aeb78d9d890a0d3170f41385af11b46c0973f60405160405180910390a3505050565b60007f9b779b17422d0df92223018b32b4d1fa46e071723d6817e2486d003becc55f00905090565b611e4d6122a6565b73ffffffffffffffffffffffffffffffffffffffff16611e6b610dcb565b73ffffffffffffffffffffffffffffffffffffffff1614611eca57611e8e6122a6565b6040517f118cdaa7000000000000000000000000000000000000000000000000000000008152600401611ec191906129f1565b60405180910390fd5b565b7f000000000000000000000000000000000000000000000000000000000000000073ffffffffffffffffffffffffffffffffffffffff163073ffffffffffffffffffffffffffffffffffffffff161480611f7957507f000000000000000000000000000000000000000000000000000000000000000073ffffffffffffffffffffffffffffffffffffffff16611f606122ae565b73ffffffffffffffffffffffffffffffffffffffff1614155b15611fb0576040517fe07c8dba00000000000000000000000000000000000000000000000000000000815260040160405180910390fd5b565b611fba611e45565b50565b8173ffffffffffffffffffffffffffffffffffffffff166352d1902d6040518163ffffffff1660e01b8152600401602060405180830381865afa92505050801561202557506040513d601f19601f820116820180604052508101906120229190613458565b60015b61206657816040517f4c9c8ce300000000000000000000000000000000000000000000000000000000815260040161205d91906129f1565b60405180910390fd5b7f360894a13ba1a3210667c828492db98dca3e2076cc3735a920a3ca505d382bbc60001b81146120cd57806040517faa1d49a40000000000000000000000000000000000000000000000000000000081526004016120c49190612b4e565b60405180910390fd5b6120d78383612305565b505050565b7f000000000000000000000000000000000000000000000000000000000000000073ffffffffffffffffffffffffffffffffffffffff163073ffffffffffffffffffffffffffffffffffffffff1614612161576040517fe07c8dba00000000000000000000000000000000000000000000000000000000815260040160405180910390fd5b565b600061216d61227e565b905060008160000160009054906101000a900473ffffffffffffffffffffffffffffffffffffffff169050828260000160006101000a81548173ffffffffffffffffffffffffffffffffffffffff021916908373ffffffffffffffffffffffffffffffffffffffff1602179055508273ffffffffffffffffffffffffffffffffffffffff168173ffffffffffffffffffffffffffffffffffffffff167f8be0079c531659141344cd1fd0a4f28419497f9722a3daafe3b4186f6b6457e060405160405180910390a3505050565b600080612245612378565b90508091505090565b6122566123a3565b61225f816123e3565b50565b61226a6123a3565b612272612469565b565b61227c6123a3565b565b60007f9016d09d72d40fdae2fd8ceac6b6234c7706214fd39c1cd1e609a0528c199300905090565b600033905090565b60006122dc7f360894a13ba1a3210667c828492db98dca3e2076cc3735a920a3ca505d382bbc60001b61248a565b60000160009054906101000a900473ffffffffffffffffffffffffffffffffffffffff16905090565b61230e82612494565b8173ffffffffffffffffffffffffffffffffffffffff167fbc7cd75a20ee27fd9adebab32041f755214dbc6bffa90cc0225b39da2e5c2d3b60405160405180910390a260008151111561236b576123658282612561565b50612374565b6123736125e5565b5b5050565b60007ff0c57e16840df040f15088dc2f81fe391c3923bec73e23a9662efc9c229c6a0060001b905090565b6123ab612622565b6123e1576040517fd7e6bcf800000000000000000000000000000000000000000000000000000000815260040160405180910390fd5b565b6123eb6123a3565b600073ffffffffffffffffffffffffffffffffffffffff168173ffffffffffffffffffffffffffffffffffffffff160361245d5760006040517f1e4fbdf700000000000000000000000000000000000000000000000000000000815260040161245491906129f1565b60405180910390fd5b61246681612163565b50565b6124716123a3565b600061247b611e1d565b90506001816000018190555050565b6000819050919050565b60008173ffffffffffffffffffffffffffffffffffffffff163b036124f057806040517f4c9c8ce30000000000000000000000000000000000000000000000000000000081526004016124e791906129f1565b60405180910390fd5b8061251d7f360894a13ba1a3210667c828492db98dca3e2076cc3735a920a3ca505d382bbc60001b61248a565b60000160006101000a81548173ffffffffffffffffffffffffffffffffffffffff021916908373ffffffffffffffffffffffffffffffffffffffff16021790555050565b60606000808473ffffffffffffffffffffffffffffffffffffffff168460405161258b91906134c1565b600060405180830381855af49150503d80600081146125c6576040519150601f19603f3d011682016040523d82523d6000602084013e6125cb565b606091505b50915091506125db858383612642565b9250505092915050565b6000341115612620576040517fb398979f00000000000000000000000000000000000000000000000000000000815260040160405180910390fd5b565b600061262c61223a565b60000160089054906101000a900460ff16905090565b60608261265757612652826126d1565b6126c9565b6000825114801561267f575060008473ffffffffffffffffffffffffffffffffffffffff163b145b156126c157836040517f9996b3150000000000000000000000000000000000000000000000000000000081526004016126b891906129f1565b60405180910390fd5b8190506126ca565b5b9392505050565b6000815111156126e45780518082602001fd5b6040517fd6bda27500000000000000000000000000000000000000000000000000000000815260040160405180910390fd5b600081905092915050565b50565b6000612731600083612716565b915061273c82612721565b600082019050919050565b600061275282612724565b9150819050919050565b600082825260208201905092915050565b7f526566756e64206661696c656400000000000000000000000000000000000000600082015250565b60006127a3600d8361275c565b91506127ae8261276d565b602082019050919050565b600060208201905081810360008301526127d281612796565b9050919050565b6000819050919050565b6127ec816127d9565b82525050565b600060208201905061280760008301846127e3565b92915050565b6000604051905090565b600080fd5b600080fd5b600080fd5b600080fd5b6000601f19601f8301169050919050565b7f4e487b7100000000000000000000000000000000000000000000000000000000600052604160045260246000fd5b6128748261282b565b810181811067ffffffffffffffff821117156128935761289261283c565b5b80604052505050565b60006128a661280d565b90506128b2828261286b565b919050565b600067ffffffffffffffff8211156128d2576128d161283c565b5b6128db8261282b565b9050602081019050919050565b82818337600083830152505050565b600061290a612905846128b7565b61289c565b90508281526020810184848401111561292657612925612826565b5b6129318482856128e8565b509392505050565b600082601f83011261294e5761294d612821565b5b813561295e8482602086016128f7565b91505092915050565b60006020828403121561297d5761297c612817565b5b600082013567ffffffffffffffff81111561299b5761299a61281c565b5b6129a784828501612939565b91505092915050565b600073ffffffffffffffffffffffffffffffffffffffff82169050919050565b60006129db826129b0565b9050919050565b6129eb816129d0565b82525050565b6000602082019050612a0660008301846129e2565b92915050565b612a15816129d0565b8114612a2057600080fd5b50565b600081359050612a3281612a0c565b92915050565b600067ffffffffffffffff821115612a5357612a5261283c565b5b612a5c8261282b565b9050602081019050919050565b6000612a7c612a7784612a38565b61289c565b905082815260208101848484011115612a9857612a97612826565b5b612aa38482856128e8565b509392505050565b600082601f830112612ac057612abf612821565b5b8135612ad0848260208601612a69565b91505092915050565b60008060408385031215612af057612aef612817565b5b6000612afe85828601612a23565b925050602083013567ffffffffffffffff811115612b1f57612b1e61281c565b5b612b2b85828601612aab565b9150509250929050565b6000819050919050565b612b4881612b35565b82525050565b6000602082019050612b636000830184612b3f565b92915050565b6000604082019050612b7e60008301856129e2565b612b8b60208301846127e3565b9392505050565b60008115159050919050565b612ba781612b92565b82525050565b6000602082019050612bc26000830184612b9e565b92915050565b600081519050919050565b60005b83811015612bf1578082015181840152602081019050612bd6565b60008484015250505050565b6000612c0882612bc8565b612c12818561275c565b9350612c22818560208601612bd3565b612c2b8161282b565b840191505092915050565b60006020820190508181036000830152612c508184612bfd565b905092915050565b600060208284031215612c6e57612c6d612817565b5b6000612c7c84828501612a23565b91505092915050565b60008060408385031215612c9c57612c9b612817565b5b600083013567ffffffffffffffff811115612cba57612cb961281c565b5b612cc685828601612939565b9250506020612cd785828601612a23565b9150509250929050565b7f4e487b7100000000000000000000000000000000000000000000000000000000600052601160045260246000fd5b6000612d1b826127d9565b9150612d26836127d9565b9250828203905081811115612d3e57612d3d612ce1565b5b92915050565b7f4e6f2066756e647320746f207769746864726177000000000000000000000000600082015250565b6000612d7a60148361275c565b9150612d8582612d44565b602082019050919050565b60006020820190508181036000830152612da981612d6d565b9050919050565b7f5769746864726177616c206661696c6564000000000000000000000000000000600082015250565b6000612de660118361275c565b9150612df182612db0565b602082019050919050565b60006020820190508181036000830152612e1581612dd9565b9050919050565b600081905092915050565b6000612e3282612bc8565b612e3c8185612e1c565b9350612e4c818560208601612bd3565b80840191505092915050565b6000612e648284612e27565b915081905092915050565b7f4e616d65206e6f742072656769737465726564206f7220657870697265640000600082015250565b6000612ea5601e8361275c565b9150612eb082612e6f565b602082019050919050565b60006020820190508181036000830152612ed481612e98565b9050919050565b6000612ee6826127d9565b9150612ef1836127d9565b9250828202612eff816127d9565b91508282048414831517612f1657612f15612ce1565b5b5092915050565b6000819050919050565b600067ffffffffffffffff82169050919050565b6000819050919050565b6000612f60612f5b612f5684612f1d565b612f3b565b612f27565b9050919050565b612f7081612f45565b82525050565b6000602082019050612f8b6000830184612f67565b92915050565b7f4e6f7420746865206f776e657200000000000000000000000000000000000000600082015250565b6000612fc7600d8361275c565b9150612fd282612f91565b602082019050919050565b60006020820190508181036000830152612ff681612fba565b9050919050565b7f496e73756666696369656e742066656500000000000000000000000000000000600082015250565b600061303360108361275c565b915061303e82612ffd565b602082019050919050565b6000602082019050818103600083015261306281613026565b9050919050565b6000613074826127d9565b915061307f836127d9565b925082820190508082111561309757613096612ce1565b5b92915050565b7f466565207472616e73666572206661696c656400000000000000000000000000600082015250565b60006130d360138361275c565b91506130de8261309d565b602082019050919050565b60006020820190508181036000830152613102816130c6565b9050919050565b7f4e6f20726566756e6420617661696c61626c6500000000000000000000000000600082015250565b600061313f60138361275c565b915061314a82613109565b602082019050919050565b6000602082019050818103600083015261316e81613132565b9050919050565b7f496e76616c696420726563697069656e74000000000000000000000000000000600082015250565b60006131ab60118361275c565b91506131b682613175565b602082019050919050565b600060208201905081810360008301526131da8161319e565b9050919050565b7f496e76616c6964206e616d65206c656e67746800000000000000000000000000600082015250565b600061321760138361275c565b9150613222826131e1565b602082019050919050565b600060208201905081810360008301526132468161320a565b9050919050565b7f4e487b7100000000000000000000000000000000000000000000000000000000600052603260045260246000fd5b7f496e76616c696420636861726163746572000000000000000000000000000000600082015250565b60006132b260118361275c565b91506132bd8261327c565b602082019050919050565b600060208201905081810360008301526132e1816132a5565b9050919050565b7f4e616d65206e6f7420617661696c61626c650000000000000000000000000000600082015250565b600061331e60128361275c565b9150613329826132e8565b602082019050919050565b6000602082019050818103600083015261334d81613311565b9050919050565b7f4e616d6520657870697265640000000000000000000000000000000000000000600082015250565b600061338a600c8361275c565b915061339582613354565b602082019050919050565b600060208201905081810360008301526133b98161337d565b9050919050565b7f496e76616c6964206e6577206f776e6572000000000000000000000000000000600082015250565b60006133f660118361275c565b9150613401826133c0565b602082019050919050565b60006020820190508181036000830152613425816133e9565b9050919050565b61343581612b35565b811461344057600080fd5b50565b6000815190506134528161342c565b92915050565b60006020828403121561346e5761346d612817565b5b600061347c84828501613443565b91505092915050565b600081519050919050565b600061349b82613485565b6134a58185612716565b93506134b5818560208601612bd3565b80840191505092915050565b60006134cd8284613490565b91508190509291505056fea26469706673582212208055451b9c0d889ca25f6f5e58b9bc54aa10c5bfdd9f3dd787d9696109272f9864736f6c63430008170033",
  "linkReferences": {},
  "deployedLinkReferences": {}
}